{
  "_format": "hh-sol-artifact-1",
  "contractName": "Donation",
  "sourceName": "contracts/Donation.sol",
  "abi": [
    {
      "anonymous": false,
      "inputs": [
        {
          "indexed": true,
          "internalType": "address",
          "name": "donor",
          "type": "address"
        },
        {
          "indexed": false,
          "internalType": "uint256",
          "name": "amount",
          "type": "uint256"
        },
        {
          "indexed": false,
          "internalType": "string",
          "name": "message",
          "type": "string"
        }
      ],
      "name": "DonationReceived",
      "type": "event"
    },
    {
      "inputs": [
        {
          "internalType": "string",
          "name": "message",
          "type": "string"
        }
      ],
      "name": "donate",
      "outputs": [],
      "stateMutability": "payable",
      "type": "function"
    },
    {
      "inputs": [
        {
          "internalType": "address",
          "name": "",
          "type": "address"
        }
      ],
      "name": "donations",
      "outputs": [
        {
          "internalType": "uint256",
          "name": "",
          "type": "uint256"
        }
      ],
      "stateMutability": "view",
      "type": "function"
    },
    {
      "inputs": [],
      "name": "getContractBalance",
      "outputs": [
        {
          "internalType": "uint256",
          "name": "",
          "type": "uint256"
        }
      ],
      "stateMutability": "view",
      "type": "function"
    },
    {
      "inputs": [
        {
          "internalType": "address payable",
          "name": "recipient",
          "type": "address"
        },
        {
          "internalType": "uint256",
          "name": "amount",
          "type": "uint256"
        }
      ],
      "name": "withdrawFunds",
      "outputs": [],
      "stateMutability": "nonpayable",
      "type": "function"
    }
  ],
  "bytecode": "0x6080604052348015600f57600080fd5b506107b68061001f6000396000f3fe60806040526004361061003f5760003560e01c80636f9fb98a14610044578063b5aebc801461006f578063c10753291461008b578063cc6cb19a146100b4575b600080fd5b34801561005057600080fd5b506100596100f1565b60405161006691906102a3565b60405180910390f35b61008960048036038101906100849190610418565b6100f9565b005b34801561009757600080fd5b506100b260048036038101906100ad91906104eb565b6101e4565b005b3480156100c057600080fd5b506100db60048036038101906100d69190610569565b610272565b6040516100e891906102a3565b60405180910390f35b600047905090565b6000341161013c576040517f08c379a0000000000000000000000000000000000000000000000000000000008152600401610133906105f3565b60405180910390fd5b346000803373ffffffffffffffffffffffffffffffffffffffff1673ffffffffffffffffffffffffffffffffffffffff168152602001908152602001600020600082825461018a9190610642565b925050819055503373ffffffffffffffffffffffffffffffffffffffff167ffa5658cbb5d60363acba0d281bddcf21cc9e7ea6053267531b4cdc36d5df7a8a34836040516101d99291906106e4565b60405180910390a250565b47811115610227576040517f08c379a000000000000000000000000000000000000000000000000000000000815260040161021e90610760565b60405180910390fd5b8173ffffffffffffffffffffffffffffffffffffffff166108fc829081150290604051600060405180830381858888f1935050505015801561026d573d6000803e3d6000fd5b505050565b60006020528060005260406000206000915090505481565b6000819050919050565b61029d8161028a565b82525050565b60006020820190506102b86000830184610294565b92915050565b6000604051905090565b600080fd5b600080fd5b600080fd5b600080fd5b6000601f19601f8301169050919050565b7f4e487b7100000000000000000000000000000000000000000000000000000000600052604160045260246000fd5b610325826102dc565b810181811067ffffffffffffffff82111715610344576103436102ed565b5b80604052505050565b60006103576102be565b9050610363828261031c565b919050565b600067ffffffffffffffff821115610383576103826102ed565b5b61038c826102dc565b9050602081019050919050565b82818337600083830152505050565b60006103bb6103b684610368565b61034d565b9050828152602081018484840111156103d7576103d66102d7565b5b6103e2848285610399565b509392505050565b600082601f8301126103ff576103fe6102d2565b5b813561040f8482602086016103a8565b91505092915050565b60006020828403121561042e5761042d6102c8565b5b600082013567ffffffffffffffff81111561044c5761044b6102cd565b5b610458848285016103ea565b91505092915050565b600073ffffffffffffffffffffffffffffffffffffffff82169050919050565b600061048c82610461565b9050919050565b61049c81610481565b81146104a757600080fd5b50565b6000813590506104b981610493565b92915050565b6104c88161028a565b81146104d357600080fd5b50565b6000813590506104e5816104bf565b92915050565b60008060408385031215610502576105016102c8565b5b6000610510858286016104aa565b9250506020610521858286016104d6565b9150509250929050565b600061053682610461565b9050919050565b6105468161052b565b811461055157600080fd5b50565b6000813590506105638161053d565b92915050565b60006020828403121561057f5761057e6102c8565b5b600061058d84828501610554565b91505092915050565b600082825260208201905092915050565b7f446f6e6174696f6e206d7573742062652067726561746572207468616e203000600082015250565b60006105dd601f83610596565b91506105e8826105a7565b602082019050919050565b6000602082019050818103600083015261060c816105d0565b9050919050565b7f4e487b7100000000000000000000000000000000000000000000000000000000600052601160045260246000fd5b600061064d8261028a565b91506106588361028a565b92508282019050808211156106705761066f610613565b5b92915050565b600081519050919050565b60005b8381101561069f578082015181840152602081019050610684565b60008484015250505050565b60006106b682610676565b6106c08185610596565b93506106d0818560208601610681565b6106d9816102dc565b840191505092915050565b60006040820190506106f96000830185610294565b818103602083015261070b81846106ab565b90509392505050565b7f496e73756666696369656e742062616c616e636520696e20636f6e7472616374600082015250565b600061074a602083610596565b915061075582610714565b602082019050919050565b600060208201905081810360008301526107798161073d565b905091905056fea2646970667358221220e1bb25f9fff98aec200c31dfbb38fee36379e27cfeac6012be6493ff0d137d4e64736f6c634300081c0033",
  "linkReferences": {},
  "deployedLinkReferences": {}
}